:100000000000042005E802002DE802002FE80200AD
:1000100031E8020033E8020035E802000000000089
:1000200000000000000000000000000037E80200AF
:1000300039E80200000000003BE802003DE8020051
:10004000FDE602007115030021CD02003FE8020029
:100050003FE802003FE802003FE802003FE80200FC
:100060003FE802003FE802003FE802003FE80200EC
:100070003FE80200EDC102003FE802003FE8020055
:100080003FE802003FE802003FE802003FE80200CC
:100090003FE802003FE802003FE802003FE80200BC
:1000A0003FE802003FE802003FE802003FE80200AC
:1000B0003FE802003FE802000000000000000000EE
:1000C0003FE802003FE802003FE802003FE802008C
:1000D00049C102003FE802003FE802003FE8020099
:1000E0003FE802003FE80200E9430300000000008F
:1000F000000000003FE80200000000003FE80200AE
:1001000000000000000000000000000000000000EF
:1001100000000000000000000000000000000000DF
:1001200000000000000000000000000000000000CF
:1001300000000000000000000000000000000000BF
:1001400000000000000000000000000000000000AF
:10015000000000000000000000000000000000009F
:10016000000000000000000000000000000000008F
:10017000000000000000000000000000000000007F
:10018000000000000000000000000000000000006F
:10019000000000000000000000000000000000005F
:1001A000000000000000000000000000000000004F
:1001B000000000000000000000000000000000003F
:1001C000000000000000000000000000000000002F
:1001D000000000000000000000000000000000001F
:1001E000000000000000000000000000000000000F
:1001F00000000000000000000000000000000000FF
:1002000010B5054C237833B9044B13B10448AFF350
:1002100000800123237010BD500200200000000068
:1002200048F8040008B5034B1BB103490348AFF37A
:10023000008008BD000000005402002048F80400BF
:10024000154B002B08BF134B9D46A3F5803A0021A8
:100250008B460F461348144A121A43F020FA0F4BEC
:10026000002B00D098470E4B002B00D09847002061
:10027000002104000D000D48002802D00C48AFF307
:10028000008043F081F92000290000F015F843F0C8
:1002900055F900BF00000800000004200000000025
:1002A000000000005002002094090120000000001E
:1002B000000000007047000070B505460E4631464C
:1002C00028462CF039FC07F067FD044628B90C4B92
:1002D0000C4A0D48662143F013F900F057F8204608
:1002E0003EF03EFF2CF050FC18B1204607F05AFDBE
:1002F000E5E7204608F0E1F820462CF04BFCF1E75A
:10030000F14C0400EC4C0400FA4C040038B50446EF
:100310000D4600F05BFA04F56C7104F5657000F0B1
:100320004AF9234604F23C41154A04F5677000F08F
:100330009CF904F2B633C4F8B03304F2424280238D
:10034000A4F8B433C4F83C24002340F2145284F8D7
:10035000383484F83934A4F8402484F858392946CC
:100360002346084A04F65C1009F00BFD22460649B4
:10037000201D06F0D1FC2CF01DFC204638BD00BF2E
:10038000990500008F040000BF03000010B5054C64
:1003900001462046FFF7BAFF00F0ECFA844200D095
:1003A000FEE710BD70020020D0F8B02300F2B63393
:1003B0009A4203D100F65C1009F004BD7047FFF7C4
:1003C000F3BF2DE9F8430446051D00F565764FF0AF
:1003D00002080127284606F0BFFD94F8383490B192
:1003E000022B18D1012B21D3022BF3D1304600F080
:1003F0001DF980B994F8583984F83804002BE9D0F5
:1004000084F85809E5E7012BEDD194F8391430460A
:1004100000F0DEF8F8B1D4F8B01304F2B630091ADF
:1004200089B291B32CF05AFC78B3FEE7204600F075
:10043000A7FA08B12BF0ECFF204600F0ABFA002839
:10044000E9D1304600F0BBF80028E4D1284606F098
:1004500019FE84F83874284606F02BFE28B9284681
:1004600006F030FE84F83904CFE794F8C0902846AF
:1004700006F036FFB9F1000F04D094F8C0300BB984
:1004800084F8587984F83884B0E7BDE8F88308B573
:1004900000F070FABDE80840FFF793BF00F2B633F2
:1004A000C0F8B0338023A0F8B43300F65C1009F034
:1004B00089BC08B500F05EFA18B1BDE80840FFF746
:1004C000EDBF08BD38B504460D4600F053FA38B10B
:1004D0002A46214600F56770BDE8384000F0CEB8E6
:1004E00038BD0000F0B50C46A1B016461F4600F01E
:1004F0005BFA2346194A1A4D8021684643F0B0FC46
:10050000684643F015FD69460246002001F062FA94
:100510000024BC42A0B20ED0292C0BD0A4EB840145
:1005200004EB4400335D2A468031684443F098FC74
:100530000134EEE7204600EB4000C0F18001094A9B
:10054000684443F08DFC684643F0F2FC0DF1010174
:10055000421E002001F03EFA21B0F0BD3B4D0400E8
:100560004F4D0400554D040038B5D0F83C3400F22E
:1005700042455B1B04469BB251B91A46294601F01D
:1005800026F940F21453C4F83C54A4F8403438BD62
:100590002A46FFF7A7FFF4E7FFF7E6BF838843B1DA
:1005A00003685A1C026019708388013B8380002015
:1005B000704703207047002201608280704708B5B1
:1005C0004FF6FF7383807E210068FFF7E7FF08BDC9
:1005D0007E2938B505460C4600680AD87D2903D225
:1005E000112901D0132906D18388012B08D80320B3
:1005F00005E0F829F7E72146FFF7D0FF40B138BD05
:100600007D21FFF7CBFF84F020012868FFF7C6FFAC
:10061000AA88054B5440E4B2002033F8143083EA32
:100620001223AB80EBE700BF584D04002DE9F041E9
:1006300086880368F543ADB2E9B204461F68B3F893
:100640000480FFF7C5FF48B9290A2046FFF7C0FF1D
:1006500020B97E212068FFF7A1FF20B123681F6029
:10066000A3F80480A680BDE8F08130B500250570B0
:10067000C0E90112C0E9033530BD00002DE9F8439F
:10068000374E04460D468F184FF00208AF4265D032
:10069000237815F8011B012B24D01BD3022BF5D195
:1006A0006068B0F80490B9F1000F50D0B4F810C0F1
:1006B00081F0200181EA0C02D2B236F8123083EACE
:1006C0001C232382FFF76AFF638A013363820123BD
:1006D0002370DBE77E29D9D1012323704FF6FF7306
:1006E0002361D3E77D2917D07E2918D06068B0F840
:1006F0000490B9F1000F2AD0B4F810C081EA0C02BE
:10070000D2B236F8123083EA1C232382FFF746FF69
:10071000638A01336382B9E784F80080B6E7638AAD
:10072000002BDBD0012B10D9228A4FF2B8039A425A
:100730000BD163681A68023A1A609A8802329A806A
:100740000021D4E902309847C8E70621F9E7A368F9
:10075000E0680321984784F8009097E7BDE8F883A4
:10076000584D040021282CD8DFE800F02E11131575
:100770002B17191B2B2B2B2B1D1F21232B2B2B2B2B
:100780002B2B2B27252B2B2B2B2B2B2B2B290120FA
:1007900070470E2070470B2070470C2070470920CF
:1007A00070470320704702207047042070471120D3
:1007B000704712207047132070471420704715208F
:1007C000704700F580407047002070472DE9F843DE
:1007D0000646044646F8041B4FF40072894600F1B1
:1007E000F901304606F07DFA0025A66704F17C0386
:1007F00004F19C02C3E9005508339A42FAD1A4F8E7
:100800009C50C4E9285504F1A80006F0D0FD4F4BD8
:10081000C4F8C8304FF6FF78C82304F1D407A4F811
:10082000CC304B4A84F8C0502346C4F8C45084F8F6
:10083000CE5084F8CF50A4F8D0804946384609F00D
:10084000A0FA00230022C4E93823C4E93A23042390
:1008500084F8F0303F4BC4F8DC501B68C4F8F43027
:1008600084F8F85084F8F95284F8FA5284F8FB526C
:1008700084F8385384F8395384F83A5384F83B5356
:1008800084F83C5384F83D5384F83E5384F83F5336
:1008900084F8405384F8418384F84253C4F84853A1
:1008A000C4F84C53C4F85053C4F85453C4F85853C4
:1008B000C4F85C53C4F86053C4F86453C4F8685374
:1008C000C4F86C5384F89053236803B9FEE7224BB5
:1008D00022491C602246304606F021FA3C220021C3
:1008E00004F53F7042F0DBFE04F5517007F0D8FCD0
:1008F00022461B49206807F059FA22462068194908
:1009000007F094FA2068012107F099FA224620683E
:10091000154908F069F825462068002107F038FAE3
:100920002068124908F05CF855F8E00B104922469F
:1009300007F0A0FF77220021284606F0FFFF384687
:1009400009F040FA2046BDE8F88300BF00F8FF0731
:10095000E90D00005C500400D80B0020570E000089
:100960004D5200003B5000005D510000F51B00009F
:10097000451B0000014B1868704700BFD80B0020D2
:1009800090F8F030042B1ABF90F8C00080F00100FE
:100990000020704790F8F030012B06BF90F8C0009F
:1009A00080F0010000207047D0F860330133C0F8B8
:1009B000603370472DE9F843994690F83C3304467C
:1009C0009046002914BF0F46702713B10D20BDE8D3
:1009D000F88300F1E0053946284607F045F800287D
:1009E000F4D194F8FA2294F8FB329A420AD00B22FE
:1009F0000021284606F0A2FF04F1D40009F0E2F934
:100A00000320E4E704F178063B46062280213046C5
:100A100006F061FF48B91FFA89F24146A06F06F05F
:100A200035FC10B9304606F039FF0328CFD1DEE798
:100A30000138C0B204289ABF014B185C00207047EF
:100A4000614F04000138C0B20F289ABF014B185CF7
:100A500000207047664F04002DE9F8439946D0F80E
:100A600070330133C0F8703390F83C330446884645
:100A70001746002B3FD100F1E0067421304606F006
:100A8000F3FFC0BB94F8FA2294F8FB329A420FD0DD
:100A9000D4F8743301333046C4F874330B22002188
:100AA00006F04CFF04F1D400BDE8F84309F08AB920
:100AB00004F17805742306228021284606F00BFFF6
:100AC000B8B94946284606F089FE90B94046FFF776
:100AD000AFFF0146A06F06F0C8FB50B93846FFF7DC
:100AE000B1FF0146284606F03EFE10B9284606F042
:100AF000D5FE0328CCD0BDE8F883F8B50446D0F87D
:100B0000780311F00F0600F10100C4F8780309D151
:100B1000022A05D11A46314604F1E00006F00EFF24
:100B2000304612E094F8FB7294F8FA023D1A0E2D4A
:100B30000CDD04F1E0000E22002106F0FFFED4F8E7
:100B40007C330133C4F87C330320F8BD94F8F952A8
:100B5000B54217D0874215D905460E2D02D90F3D53
:100B6000EDB2FAE7BE3504EB850595F804C01CF03C
:100B7000100F0DD00CF00F0EB64509D16FF3041C09
:100B800085F804C038460E2805D90F38C0B2FAE7F8
:100B90000130C0B2DEE7BE3004EB800001370579DA
:100BA00061F30305E9B241F0100162F346110171EE
:100BB000426863F3DE12426084F8FB720020C4E7EF
:100BC00013460222FFF799BF38B511F0300F00F13C
:100BD000780408BFC0F8C42015460023062220462A
:100BE00006F079FE48B92946204606F0BCFD20B93A
:100BF0002046BDE8384006F051BE38BD2DE9F74328
:100C000004460E46014668469146984604F00AFEA0
:100C1000DDE900570DB9F90717D504F178084B46FF
:100C200006223146404606F056FED8B97B10FA0738
:100C300004EB030044BFE3585D59A84790B9404610
:100C400003B0BDE8F04306F029BEB8F1000F07D0AD
:100C50000D223146204603B0BDE8F043FFF7B4BF94
:100C60004246F6E703B0BDE8F08370B504460026BF
:100C700094F8FA5294F8FB32AB4237D0BE3504EB0D
:100C800085021379D90616D404EB85052B796FF309
:100C900004132B7194F8FA320133DBB20F2B84F872
:100CA000FA32E5D194F8FB3284F8FA620E2B1AD9A5
:100CB0000F3BDBB2FAE7C3F30301526803F06003B2
:100CC000402B41F08001C2F3D71205D12046FFF737
:100CD0007BFF0028D8D070BDB3FA83F35B092046B0
:100CE000FFF78CFFF5E784F8FB32C1E70020F2E75D
:100CF0002DE9F04F044685B004F0B2FAD4E9382368
:100D000013435CD004F1E00006F015FE344F01906F
:100D10000025019AEBB2934251D2D4E93803C5F1D0
:100D2000200103FA01F1A5F1200220FA05FA23FAC5
:100D300002F24AEA010A4AEA020A00230AF0010220
:100D40001343A5F12003C5F12006029301D101351B
:100D5000DFE7D4F880330133C4F880330C236B43CE
:100D6000D919DA598ABB4A68772A09D120680392CF
:100D70002BF034FB082898BF1A4B039A98BF1A5CD3
:100D800080212046FFF720FFC8B9D4F88433029AA7
:100D90000133C4F88433012303FA02F923FA06F677
:100DA00003FA05F8D4E9382349EA060922EA0800DB
:100DB00023EA090150EA0103C4E93801C7D101233C
:100DC00084F8903305B0BDE8F08F94F89033002B91
:100DD000DBD0012380212046FFF710FFD4E700BFBE
:100DE00060500400584F0400014B1868FFF780BFA3
:100DF000D80B002010B590F8C030044633B1D0F8BD
:100E0000F4308B4204BF002380F8C0302046FFF747
:100E10002CFFF8B994F8F81099B101230C22204660
:100E2000FFF7ECFEB0B994F8F03084F8F800042B2A
:100E300007D0201D06F08EF80123C4F8F40084F8D2
:100E4000C030204604F0BFF820B92046BDE810406D
:100E5000FFF74EBF10BDFFF7CDBFF8B500F1780426
:100E600005462046069EBDF81C7006F034FD50B9BC
:100E70003A463146A86F06F009FA20B92046BDE887
:100E8000F84006F00BBDF8BD2DE9F04F042B87B0FC
:100E900004460F46924602D0052B16D0FEE70146C7
:100EA00004A805F0F7FDDDE904654FF0070905F03A
:100EB000010B9EB9BBF1000F10D10D22394620461F
:100EC000FFF77EFE07B0BDE8F08F014604A805F0ED
:100ED0004BFE4FF00809DDE90465E8E704F1A808D6
:100EE000404606F0D0FB0DF10A0203A9404606F089
:100EF00073FB404606F0CEFB6D10002384F83C33B4
:100F00006019BBF1000F01D063599E59B04701230E
:100F100084F83C33054618B1FFF724FC0246CDE7C0
:100F2000BDF80A300193039B00934A465346394665
:100F30002046FFF792FF0028C4D02A46BEE708B536
:100F40000022FFF73DFE08BD38B50446006806F0F4
:100F50002BFF0021206807F03AFC0021206806F0F2
:100F600031FF722280212046FFF72EFE054648B150
:100F700004F1E0007722002106F0E0FC04F1D40047
:100F800008F020FF284638BD30B5C3B004460D46F2
:100F9000002301A9A830019306F001FB40B1FFF73F
:100FA000E1FB294602462046FFF70EFE43B030BD66
:100FB0008DF80701FF2202A9019878343EF0D2F89B
:100FC0004FF46F5306222946204606F084FC002881
:100FD000ECD102A9204606F001FC0028E6D120460B
:100FE00006F05CFCE2E710B50446006807F0A6F8DE
:100FF0000146A06FBDE8104006F037B910B50446B1
:10100000006806F07EFF0146A06FBDE8104006F0C4
:101010002CB9000037B502A90023054641F8043D6C
:10102000A83006F084FA044690B99DF804102868A8
:1010300006F072FF044658B9286807F07FF838B107
:1010400095F83A3323B10449286807F088F8044634
:10105000204603B030BD00BF0554000010B5044663
:1010600000682BF017FB002818BF0221A06F08BFF3
:101070000021BDE8104006F0F8B837B502A90023FA
:10108000054601F8013DA83006F0A9F9044650B91B
:101090009DF807301BB1022B08D8012100E0014662
:1010A00028682BF0F9FA204603B030BD0724FAE790
:1010B00010B5044654F8780B06F083FF014620462D
:1010C000BDE8104006F0F3BA13B504460DF1060171
:1010D000A83006F0B2F920B9BDF80610206806F075
:1010E00074FF02B010BD10B50446006806F04FFF53
:1010F00008220146A06FBDE8104006F0C7B813B53E
:101100000822044601A9A83006F028FA18B9019966
:10111000206806F040FF02B010BD10B5044654F838
:10112000780B06F075FF01462046BDE8104006F03A
:10113000BEBA90F83A13806F06F097B837B502A997
:101140000023054601F8013DA83006F058F9044691
:1011500078B9286806F0F2FF38B19DF807302868A2
:1011600053B1074906F0FBFF04469DF8073085F8A8
:101170003A33204603B030BD06F0E9FFF4E700BF84
:1011800005540000F8B505460E460024012707FA6D
:1011900004F33342E1B204D10134202CF7D1002012
:1011A00004E0A86F06F061F80028F5D0F8BD002330
:1011B000F7B505460C460B6000F1A8070126B5F807
:1011C000AE20B5F8B0309A420FD00DF10701384685
:1011D00006F005F950B99DF807301F2B08D8226892
:1011E00006FA03F313432360E9E7002003B0F0BDE0
:1011F0000720FBE7D0F8C810FFF7C4BF13B502A95A
:10120000002341F8043D0446FFF7D1FF10B9019BCC
:10121000C4F8C83002B010BDB0F8CC10783006F079
:1012200046BA00F1CC01A83006F007B910B5044663
:10123000006806F083FF48B194F94133013312D0BE
:101240000221A06FBDE8104006F00FB8206806F03C
:101250004DFF50B9206806F063FF0028F0D12068E8
:1012600007F0FCFA18B90021EBE70121E9E70321B7
:10127000E7E7000010B586B006A90023044601F890
:10128000013DA83006F0ABF840B99DF81730032BAC
:1012900003D8DFE803F047050F370C2006B010BD78
:1012A000B4F8CC200094224BD4F8C810206806F083
:1012B00009FFF3E7206806F041FFC8B194F9413314
:1012C000013331D1D4F8C82082B3531E13402DD13D
:1012D0005208D9B203F1010008D184F84133B4F8BF
:1012E000CC20144B206806F04EFFD7E70346EFE70B
:1012F000B4F8CC200094104BD4F8C810206806F045
:10130000FBFECBE70A49019194F8CF10009194F8C5
:10131000CE30B4F8D0200294D4F8C810206807F07A
:101320008AFABBE70020B9E70D20B7E70720B5E749
:10133000B34E000089550000174F00002DE9F84F0B
:101340000546E03006F0F7FADFF8589083460024AF
:101350004FF00C0A05F17808E3B29B451FD9D5E997
:101360003A23C4F1200022FA04F603FA00F0A4F1B3
:10137000200123FA01F106430E4306F00102002387
:10138000134301D10134E7E70AFB04F3404653F865
:10139000091006F0E8F90028F4D0BDE8F88F002025
:1013A000FBE700BF60500400F7B500230022C0E94E
:1013B0003A23044600F1A80700F1E006B4F8AE2095
:1013C000B4F8B0309A420BD001A9384606F0AFF815
:1013D000054648B901220199304606F0F1FAEDE7D9
:1013E0000025284603B0F0BD012341F20802802108
:1013F0002046FFF703FCF4E713B5044601A9A83023
:1014000006F095F828B90122019904F1E00006F0F0
:10141000D7FA02B010BD13B5044601A9A83006F0F2
:1014200086F828B90246019904F1E00006F0C8FAEE
:1014300002B010BDD0F8C410783006F094B910B5E1
:1014400000F178040421204606F08DF928B92046E1
:101450000321BDE8104006F086B910BD03217830A5
:1014600006F081B90021783006F07DB910B500F1A1
:1014700078040521204606F076F9002864D10C2175
:10148000204606F070F900285ED11821204606F0AB
:101490006AF9002858D12021204606F064F9002876
:1014A00052D140F20121204606F05DF900284BD1CF
:1014B00040F20621204606F056F9002844D1352195
:1014C000204606F050F9F8BB0E21204606F04BF9F5
:1014D000D0BB4FF40071204606F045F9A0BB4FF495
:1014E0000171204606F03FF970BB40F20A21204608
:1014F00006F039F940BB3021204606F034F918BB1C
:101500003121204606F02FF9F0B94FF480612046D2
:1015100006F029F9C0B940F20341204606F023F94C
:1015200090B940F20441204606F01DF960B940F23E
:101530000241204606F017F930B9204640F2054135
:10154000BDE8104006F00FB910BD10B5044606F016
:1015500035FC014604F17800BDE8104006F03EB9C4
:101560000121806F05F081BE0021806F05F07DBEF6
:10157000212070470421806F05F077BE0C20704752
:1015800013B50446694600682AF082FF08226946BE
:10159000A06F05F07BFE02B010BD0221783006F08E
:1015A000B8B990F8F010806F05F05FBE73B50446CF
:1015B0000E46A8300DF1070105F011FFA0BB9DF804
:1015C0000730042B07D8012202FA03F111F01B0F98
:1015D00002D14B0703D4032384F8F03001E084F8F0
:1015E000F020002384F8F8300C22012331462046F5
:1015F000FFF704FB94F8F030042B054608D070B9CF
:10160000201D05F0A7FCC4F8F400012384F8C030C5
:1016100015B184F8F8600025284602B070BD074B6C
:101620001B68C4F8F430F0E7FFF79CF83146024637
:101630002046FFF7C9FA0546EEE700BF5C500400FC
:10164000712A10B51C4616D003D80C2A0BD00020E6
:101650000DE041F210539A420AD0B2F56F5FF6D115
:10166000FFF792FC01E0FFF7A1FF2070012010BD01
:1016700000F098FEF9E704F0A9F8F6E7F0B585B0B8
:1016800004460D460026014602A817468DF807605D
:1016900004F092FFDDE9022303F0010102B9C1B1B8
:1016A0005B1084F83C63E01809B1E3589A589047FE
:1016B00001228DF8070084F83C23C8B93B4629462F
:1016C0002046FFF71AFA8DF807009DF8070005B0CD
:1016D000F0BD0DF107033A4629462046FFF7B0FF5B
:1016E0000028F2D10D2229462046FFF769FAEAE7E1
:1016F000FFF738F80246F6E773B50D4602A9002356
:1017000041F8043D0446A830164605F010FF014696
:1017100050B1FFF727F8294602462046FFF750FA56
:101720000146084602B070BDB31E032BF9D8DFE8AE
:1017300003F002090F0F019B002229462046FFF704
:10174000DCF9EDE7019A29462046FFF797FFE7E726
:101750003346019A29462046FFF796FBE0E737B566
:1017600004460D46A83001A905F0E1FE70B9019AC2
:101770000B2A26D8DFE802F0060C111111112525DD
:1017800025161B2029462046FFF7D9FB03B030BDA4
:1017900029462046FFF7D8FBF8E729462046FFF701
:1017A000ABFFF3E72946204600F0DDFFEEE72946D0
:1017B000204600F0DCFFE9E72946204600F0E7FF7D
:1017C000E4E7052229462046FFF7FAF9DEE7F7B5F8
:1017D00002AD0123002700F1A806044680F83C333F
:1017E00005F8017D304605F0EFFD042384F8F03064
:1017F00084F8C0702946304605F0F1FD80B99DF8A7
:1018000007100B060CD5D4F8643311F0300F03F138
:101810000103C4F8643308D006222046FFF7D4F948
:10182000002384F83C3303B0F0BD2046FFF797FF58
:1018300038B19DF80710FEF795FF02462046FFF7E6
:10184000BFF994F8FA2294F8FB329A4202D020466B
:10185000FFF70BFA9DF8073094F8F92203F00F0315
:1018600032B19A421EBFD4F868230132C4F868230B
:101870000F2B14BF0133012384F8F932D0E70000A5
:101880002DE9F0410446E03006F055F80C4E0746CD
:1018900000254FF00C087834EBB29F420ED908FBBC
:1018A00005F39A19127A0AB90135F5E799592046D4
:1018B00005F059FF0028F7D0BDE8F0810020FBE7D4
:1018C0006050040010B5044600682AF0DFFEC1B283
:1018D000A06FBDE8104005F0C8BC10B50446006814
:1018E0002BF00EF9C1B2A06FBDE8104005F0BDBCF1
:1018F00013B504460DF1070100682AF02DFF30B939
:101900009DF80710A06F05F0B0FC02B010BDFEF707
:1019100029FF014604F1780005F0FBFFF5E713B558
:1019200002A90023044601F8013DA83005F079FD25
:1019300020B99DF9071020682AF018FF02B010BDE9
:10194000FEE7FEE710B5044606F07DFCFFF770F8F1
:101950000146A06FBDE8104005F087BC07B502A99D
:10196000002301F8013DA83005F039FD60B99DF86C
:101970000730072B15D8DFE803F01212040A0A0C0F
:101980000E10012006F066FC03B05DF804FB022097
:10199000F8E70320F6E70420F4E70520F2E700204B
:1019A000F0E70720F0E710B50446006806F0D8FA23
:1019B00001462046BDE81040FFF7E4BB10B50446E1
:1019C000006813F03DFC01462046BDE81040FFF7DB
:1019D000D9BB00001346074A10B40446106828B16A
:1019E0000A4621465DF8044BFEF7E4BF0D205DF882
:1019F000044B7047D80B00200CB470B5A8B02CABCA
:101A00000E460C4953F8042B0C68019305469621A9
:101A100002A842F08BFB002806DD2CB102AB324657
:101A200029462046FFF718F828B0BDE8704002B0FC
:101A3000704700BFD80B00200822006805F026BCC4
:101A4000F8B50546087F0C46C0F3C003C0F340015B
:101A5000C0F3800200F0010000F08BFD05F1780773
:101A6000064621463846FFF7E7FF40BB218A384645
:101A700005F01DFE18BBA168384605F027FEF0B939
:101A8000E168384605F022FEC8B9217DA86F05F04F
:101A9000ECFBA0B9617DA86F05F0E7FB78B9A17DEB
:101AA000A86F05F0E2FB50B93146A86F05F0DDFBE9
:101AB00028B9E17DA86FBDE8F84005F0D6BBF8BDB8
:101AC00070B504460D46E03041F60D1105F0CCFF2F
:101AD000002836D104F1780641F60D130622802144
:101AE000304605F0F8FE60BB29463046FFF7A4FFFC
:101AF00038BB2989304605F0DAFD10BBA97AA06F02
:101B000005F0B3FBE8B9E97AA06F05F0AEFBC0B908
:101B1000297BA06F05F0A9FB98B9697BA06F05F040
:101B2000A4FB70B9A97BA06F05F09FFB48B9E97BC6
:101B3000A06F05F09AFB20B93046BDE8704005F073
:101B4000ADBE70BD0B46014618B113B11846FFF784
:101B5000B7BF70472DE9F8430446164603292BD832
:101B6000DFE801F02C252E0241F20B55082704F185
:101B7000E0082946404605F077FFE8B904F1780906
:101B80002B463A468021484605F0A5FEF0B1522D7D
:101B900002D1012384F83D3340460B22002105F099
:101BA000CDFE04F1D400BDE8F84308F00BB90827D6
:101BB00096F82030DB0607D5BDE8F8830727F7E75E
:101BC00041F20B550727D2E75225D0E7522D06F1F7
:101BD0000401204609D1FFF733FF0028D9D1484638
:101BE00005F05CFE0028E7D0D1E700F0D0FC00282B
:101BF000F5D0D1E738B50D460446FEF7BBFE2A46C0
:101C00002146BDE83840FFF7A5BF10B5044600687F
:101C100006F04CFE0146A06FBDE8104005F025BB64
:101C200010B50446006806F060FD0146A06FBDE8EF
:101C3000104005F01ABBF0B5044689B0064654F8CA
:101C4000780B06F01EFE00250746E9B2B9421AD20B
:101C50006A46306806F07AFE08B10135F5E79DF86E
:101C60001C30DB06F9D4204605F0D0FD48B96946A2
:101C70003046FFF7E5FE20B9204605F0E6FD0028D6
:101C8000EBD009B0F0BD0020FBE7F0B5054687B00A
:101C9000044655F8780B06F074FE0026074601AAA4
:101CA000F1B2206806F06FFE28B10136F3B29F4210
:101CB000F5D2002044E09DF81430DB07F5D5284626
:101CC00005F0A4FD00283BD101A92846FFF7B4FE8A
:101CD000B0BBBDF80C10284605F0E9FC80BB9DF8B0
:101CE0000E10A06F05F0C1FA50BB9DF80F10A06F49
:101CF00005F0BBFA20BB9DF81010A06F05F0B5FAF7
:101D0000F0B99DF81110A06F05F0AFFAC0B99DF8B9
:101D10001210A06F05F0A9FA90B99DF81310A06FEA
:101D200005F0A3FA60B99DF81410A06FC1F340014B
:101D300005F09BFA20B9284605F087FD0028B4D0AD
:101D400007B0F0BD2DE9F04304468FB007460025EB
:101D500054F8780BADF8065006F093FD80465FFA14
:101D600085F9C14534D206AA4946386806F0EEFD29
:101D700008B10135F3E79DF83430DB06F9D420468D
:101D800005F044FDD8B906A92046FFF755FEB0B9C5
:101D9000BDF82810204605F08AFC80B90EAE26F862
:101DA000320D02AB32464946386806F0D6FD48B9D6
:101DB000102202A9B86F05F069FA0028F1D00FB01F
:101DC000BDE8F083204605F040FD0028D1D0F6E7BD
:101DD0000020F4E710B50446006806F05BFD0146FC
:101DE000A06FBDE8104005F040BA37B505460DF1CB
:101DF0000701A83005F003FB044620B99DF8071041
:101E0000286806F04BFD204603B030BD10B50446EF
:101E1000006806F0C8FD10220146A06FBDE8104022
:101E200005F034BA13B5002304460DF1020201A9EE
:101E3000A830019305F0D0FB38B9BDF80230102B63
:101E400005D10199206806F0B2FD02B010BD062050
:101E5000FBE710B50446006806F013FD0146A06FCD
:101E6000BDE8104005F001BA13B502A900230446ED
:101E700001F8013DA83005F0B2FA20B99DF807102D
:101E8000206806F002FD02B010BD10B504460068DF
:101E900006F026FD0146A06FBDE8104005F0E5B94B
:101EA00037B502A90023054601F8013DA83005F029
:101EB00096FA044620B99DF80710286806F014FD2C
:101EC000204603B030BD10B50446006806F02EFD74
:101ED0000146A06FBDE8104005F0C7B937B502A9AB
:101EE0000023054601F8013DA83005F078FA0446C4
:101EF00020B99DF80710286806F01CFD204603B0A5
:101F000030BD10B50446006806F018FD0146A06F0C
:101F1000BDE8104005F0A9B937B502A90023054670
:101F200001F8013DA83005F05AFA044620B99DF8A1
:101F30000710286806F006FD204603B030BD10B536
:101F4000044654F8780B06F0B9FC01462046BDE87B
:101F5000104005F0BBBB37B502A90023054641F888
:101F6000043DA83005F07DFA044618B901992868A7
:101F700006F0A9FC204603B030BD10B50446006849
:101F800006F0A6FC0146A06FBDE8104005F06DB953
:101F900037B502A90023054601F8013DA83005F038
:101FA0001EFA044620B99DF80710286806F094FC34
:101FB000204603B030BD10B59AB0044669460068AB
:101FC00005F0DDFE28B96946204601F0E3F81AB0B5
:101FD00010BDFEF7C7FB014604F1780005F099FC3F
:101FE000F5E710B50446006805F077FE012808D033
:101FF00002280CBF02210021A06FBDE8104005F0AF
:1020000034B90146F8E713B504460DF10701A830CD
:1020100005F0E5F948B99DF807301BB1022B06D051
:10202000072002E0206805F00CFE02B010BD034658
:1020300002460146206805F0ECFDF6E730B500F1F8
:10204000A80485B00546204605F0E6FA58B9B5F86B
:10205000AE20B5F8B0309A4207D0082201A9204638
:1020600005F07CFA10B105B030BD0190204605F0B6
:10207000F3FA0028F7D102A9204605F0F2F900286A
:10208000F1D103A9204605F08AFA0028EBD1DDE959
:1020900002320199286805F0E4FDE4E737B500F164
:1020A000A8050446284605F0B7FA58B9B4F8AE209A
:1020B000B4F8B0309A4207D0082201A9284605F0AA
:1020C0004DFA10B103B030BD0190284605F0C4FAB6
:1020D0000028F7D10199206805F0C8FDF2E713B593
:1020E00002A9002321F8023D0446006805F0C9FD5D
:1020F000014628B90021A06F05F0B7F802B010BD65
:10210000BDF80620002AF5D0A06F05F0BFF8002822
:10211000F0D0F3E713B5044601A9A83005F03FFA63
:1021200018B90199206805F0A7FD02B010BD10B5DF
:10213000044654F8780B05F0CBFD01462046BDE877
:10214000104005F0B4BA30B500F1A80487B00546D8
:1021500004A9204605F085F9D8B90DF10D012046F6
:1021600005F03DF9A8B90DF10E01204605F065F91D
:1021700078B9102205A9204605F0F0F948B905996B
:102180000091BDF80E309DF80D200499286805F0E7
:1021900080FD07B030BD000030B500F1A80489B063
:1021A000054606A9204605F05CF930BB0DF1130188
:1021B000204605F014F900BB05A9204605F03DF9BD
:1021C000D8B90DF11601204605F037F9A8B910224B
:1021D00007A9204605F0C2F978B909490291079983
:1021E0000191BDF816100091BDF814309DF8132030
:1021F00003950699286805F051FD09B030BD00BF70
:10220000652200002DE9F04100F17804054688467A
:1022100016461F46072241F602038021204605F09C
:102220005AFB58B105F1E0000B22002105F086FBB6
:1022300005F1D400BDE8F04107F0C4BD4146204699
:1022400005F044FA0028EDD13A463146204605F023
:10225000B5FA0028E6D1204605F020FB0028E1D1A0
:10226000BDE8F08110B41C4613460A4601462046DC
:102270005DF8044BFFF7C6BF30B500F1A80587B085
:1022800004460DF10E01284605F0D7F8A0B904A9BF
:10229000284605F0E6F878B9102205A9284605F089
:1022A0005DF948B9054B0093BDF80E100194DDE9C6
:1022B0000423206805F0FDFC07B030BD19230000A1
:1022C000F8B500F1780405460F46164641F60403BA
:1022D00007228021204605F0FEFA58B105F1E00002
:1022E0000B22002105F02AFB05F1D400BDE8F840DF
:1022F00007F068BD3946204605F0D9F90028EDD130
:102300003146204605F0E2F90028E7D1204605F0E5
:10231000C5FA0028E2D1F8BD13460A460146184620
:10232000FFF7CEBF13B504460DF1020201A9A83094
:1023300005F05DF940B9BDF80220FF2A06D8D2B2F7
:102340000199206805F0BAFC02B010BD0720FBE738
:1023500030B58BB004460DF1060202A9A83005F095
:1023600046F970B9BDF80650FF2D0CD801461A2267
:1023700003A841F094F9EBB2029A206803A905F092
:10238000A2FC0BB030BD0720FBE710B50446006887
:1023900005F0A3FC831E5942A06F5941BDE81040CF
:1023A00004F063BF73B50E4602A90023044601F88A
:1023B000013DA83005F023F830B99DF807302568B5
:1023C00063B9284605F03DFCFEF7CCF9022203462E
:1023D00031462046FEF791FB02B070BD034602462F
:1023E0000146284605F015FCEEE77FB500F1A8058B
:1023F0000023064602A92846CDE90133039305F0E0
:10240000CEF890B903A9284605F02BF8044660B928
:10241000082201A9284605F0A1F800B10194DDE9E0
:1024200002230199306805F01CFC04B070BD37B57B
:1024300005460DF10701A83004F0D1FF044620B98C
:102440009DF80710286806F035FA204603B030BD25
:1024500090F83F13806F04F008BF10B500F23F31D1
:102460000446A83004F0BBFF30B994F83F1320684D
:10247000BDE8104006F016BA10BD37B504460DF1A0
:102480000701A83004F0ABFF054638B99DF80710E6
:10249000206806F02DFA0D2808BF284603B030BD8D
:1024A00070B5044686B0002600F1780501AAF1B2A5
:1024B000206806F070FA10BB9DF81730DB0701D4D6
:1024C0000136F3E7284605F0A1F9B0B9102201A9B9
:1024D000A06F04F0DBFE80B9BDF81410284605F0AB
:1024E000E6F850B99DF81610A06F04F0BEFE20B9B2
:1024F000284605F0AAF90028E2D006B070BD0020F9
:10250000FBE7437C13F0040F14BF202000201907C1
:1025100048BF40F01000DA0648BF40F008005906F6
:1025200048BF40F002009A0648BF40F00400DA09B4
:1025300043F3010318BF40F00100DBB240EA83100F
:10254000C0B2704704F091BE002205F0F7B90A4608
:10255000002105F0F3B9102205F000B8082204F0BC
:10256000FDBFC9B2006804F080BE1022006804F00C
:102570008DBE00280CBF0020082009B140F00400E7
:102580000AB140F002000BB140F001007047F8B50D
:10259000064691F820000C46C0F3C003C0F3800249
:1025A000C0F3400100F00100FFF7E3FF06F17805FA
:1025B0000746284605F02AF900283BD1214628463F
:1025C000FFF73AFAB0BBA189284605F070F888BB3E
:1025D000A168284605F07AF860BB217EB06F04F050
:1025E00044FE38BB94F919102846FFF7BAFF08BB20
:1025F0003946B06F04F039FEE0B994F82010B06F9E
:10260000C1F30011FFF79EFFA0B92169284605F02C
:102610005DF878B96169284605F058F850B994F921
:102620001A102846FFF79DFF20B92846BDE8F8405C
:1026300005F00BB9F8BD38B500F178040546204621
:1026400005F0E4F8A0BBD5F87013204605F03EF87D
:1026500070BBD5F87413204605F038F840BBD5F8A8
:102660007813204605F032F810BBD5F87C132046CD
:1026700005F02CF8E0B9D5F88013204605F026F8CF
:10268000B0B9D5F88413204605F020F880B9D5F804
:102690008813204605F01AF850B9D5F88C13204657
:1026A00005F014F820B92046BDE8384005F0CDB853
:1026B00038BD10B5044654F8780B05F09FFC014670
:1026C0002046BDE8104005F001B813B5044601A945
:1026D000A83004F0C6FE18B90199206805F093FCF3
:1026E00002B010BD10B5044654F8780B05F04FFC4D
:1026F00001462046FFF7A0F910BD000010B50446C2
:10270000006805F0FEFBB0B10A280CD84FF4FA615E
:10271000414301F55C2101F5346104F17800BDE825
:10272000104004F0D3BF192807D8054941F2883377
:1027300003FB0011F1E70349EFE70021EDE700BFDC
:10274000B0DB2300CC3F0D0013B502A9002341F8F4
:10275000043D0446FEF72BFD18B90199206805F0E9
:1027600003FC02B010BD02231A46FEF7C6B970B5CD
:10277000044600680D4605F01EFBFDF7F3FF2946F1
:10278000034602222046BDE87040FEF7B6B9FFF7C7
:10279000EABF10B50446006805F0ACFA0146A06F28
:1027A000BDE81040FFF7CEBE10B50446006805F046
:1027B0001DFB0146A06FBDE81040FFF7C3BE13B577
:1027C00002A90023044601F8013DA83004F017FED9
:1027D00020B99DF80710206805F0F4FA02B010BD8A
:1027E00010B50446006805F075FF011C18BF0121F3
:1027F000A06FBDE81040FFF7A5BE73B502A9002386
:10280000054601F8013DA83004F0F9FD044688B9F9
:1028100028689DF8076005F05DFF003018BF0120B3
:10282000B04207D09DF80730286833B1012105F088
:10283000CEFF0446204602B070BD2146F7E70000F7
:1028400010B50446006805F045FF0238C0B2022802
:1028500096BF044B0021195CA06FBDE8104004F046
:1028600004BD00BF794F040013B502A9002304463C
:1028700041F8043DA83004F05AFE48B9019B032BEF
:1028800006D8DFE803F0020F070B206805F011FF00
:1028900002B010BD206806F034F8F9E7206806F0B1
:1028A00041F8F5E7206805F008FFF1E710B50446A8
:1028B00054F8780B05F0CEFE01462046BDE81040E6
:1028C00004F08CBF37B502A90024054641F8044D39
:1028D000A83004F064FE28B90199286805F0BEFE0E
:1028E00003B030BD2046FBE710B50446006805F094
:1028F000F7FD08220146A06FBDE8104004F0C6BCF9
:1029000013B5002304460DF1020201A9A83001937A
:1029100004F062FE38B9BDF80230082B05D10199E8
:10292000206805F0E1FD02B010BD0620FBE710B500
:102930000446006805F048FE10220146A06FBDE87D
:10294000104004F0A3BC13B5002304460DF10202AD
:1029500001A9A830019304F03FFE38B9BDF8023058
:10296000102B05D10199206805F033FE02B010BD8F
:102970000620FBE710B5044654F8780B05F088FEF6
:1029800001462046BDE8104004F0A0BE37B505461C
:1029900001A9A83004F065FD044618B9019928681A
:1029A00005F07AFE204603B030BD10B5044654F859
:1029B000780B05F0A1FE01462046BDE8104004F06A
:1029C00085BE10B5044654F8780B05F06AFE014642
:1029D0002046BDE8104004F079BE37B5054601A990
:1029E000A83004F03EFD044618B90199286805F0A6
:1029F0005CFE204603B030BD10B50446006805F00B
:102A00001AFD0146A06FBDE8104004F02EBC10B5C1
:102A10000446006805F016FD0146A06FBDE81040B1
:102A200004F023BC10B5C2B00446FF238DF8073074
:102A300002AA0DF107030021006805F07EF89DF859
:102A40000720A06F02A904F021FC42B010BD10B510
:102A5000C2B00446FF238DF8073002AA0DF1070328
:102A60000121006805F069F89DF80720A06F02A910
:102A700004F00CFC42B010BD10B5C2B00446FF23F8
:102A80008DF8073002AA0DF107030021006805F058
:102A9000B2FC9DF80720A06F02A904F0F7FB42B03A
:102AA00010BD10B5C2B00446FF238DF8073002AA4E
:102AB0000DF107030121006805F09DFC9DF807203A
:102AC000A06F02A904F0E2FB42B010BD10B50446AD
:102AD000006805F003FE0146A06FBDE8104004F059
:102AE000C4BB1FB50446694654F8780B05F027FDB2
:102AF00028B969462046FFF738FD04B010BDFDF740
:102B000031FE0146204604F004FFF6E730B50446E6
:102B100087B0054601A954F8780B05F0FAFD0028A6
:102B20003CD19DF814309B0733D50DF10201286884
:102B300005F02AFE0DF10301286805F037FE01A912
:102B40002046FEF779FF10BBBDF80C10204604F0BC
:102B5000AEFDE0B99DF81310204604F0B7FDB0B902
:102B60009DF902102046FFF7FCFC80B99DF9031087
:102B70002046FFF7F6FC50B99DF81110A86F04F03D
:102B800074FB20B99DF81210A86F04F06EFB07B01B
:102B900030BD1421204604F0BCFEF8E7FDF7E2FD4D
:102BA0000146F7E710B58AB000230446ADF80230BD
:102BB00001AA0DF10201206805F084FD38B901A9D0
:102BC0002046FFF7E4FC0028F2D00AB010BD002038
:102BD000FBE730B58BB000230546ADF8023000F1BD
:102BE000780401AA0DF10201286805F06BFD68BBAD
:102BF000204604F00BFE38BB01A92046FEF71CFF5F
:102C000010BBBDF81010204604F051FDE0B9BDF82E
:102C10002010204604F04BFDB0B9BDF8221020462C
:102C200004F045FD80B99DF91D102046FFF799FC81
:102C300050B99DF91E102046FFF793FC20B920469D
:102C400004F003FE0028CCD00BB030BD0020FBE721
:102C500037B5044602A9002301F8013D54F8780B6A
:102C600005F01AF9851E9DF8070058B135F8021FC6
:102C7000204604F01CFD28B99DF80730013B8DF873
:102C80000730F0E703B030BD73B50646044656F88A
:102C9000A80B05F0FCF8B4F8B030B4F8AE209B1ADD
:102CA0009BB2012B16D90DF10601304604F0C5FB8D
:102CB00080B9BDF80610206805F0DFF80546002849
:102CC000E9D001235C2280212046FDF797FF2846AA
:102CD00002B070BD0025FAE790F83813806FFFF757
:102CE00031BC37B502A90023044601F8013DA830E4
:102CF00004F085FB054630B994F838239DF8073079
:102D000022B984F83833284603B030BD002BFAD1FD
:102D100084F83803206804F077FFF4E730B589B011
:102D200000230446019300F1780502AA01A9206856
:102D300005F06FFB80BB284604F068FD50BB02A97C
:102D40002846FFF712FC28BB9DF81810A06F04F06E
:102D50008CFAF8B99DF81A10A06F01F00101FFF785
:102D6000F1FBB8B902A8FFF7CCFB0146A06F04F055
:102D70007CFA78B90146A06F04F077FA50B9BDF833
:102D80001C10284604F093FC20B9284604F05DFD91
:102D90000028CAD009B030BD0023019304F17805A2
:102DA00002AA01A9206804F007FF002836D12846AE
:102DB00004F02CFD0028EDD102A92846FFF7D5FB31
:102DC0000028E7D19DF81810A06F04F04EFA0028F3
:102DD000E0D19DF81A10A06F01F00101FFF7B2FBDE
:102DE0000028D7D102A8FFF78CFB0146A06F04F0A2
:102DF0003CFA0028CED10121A06F04F036FA002859
:102E0000C8D1BDF81C10284604F051FC0028C1D1DF
:102E1000284604F01AFD0028C2D0BBE70020B9E71D
:102E200030B5044689B00021182202A88DF805109B
:102E30008DF8061040F033FC94F83833002B4AD05C
:102E400004F1A80502A9284604F096FB002840D109
:102E50000DF10701284604F0C2FAD0BB0DF10501BF
:102E6000284604F0CCFAA0BB0DF10601284604F078
:102E7000B6FA70BB9DF807309DF805208DF8183024
:102E80009DF81A30206862F300039DF806208DF843
:102E90001A309DF81930910961F30103C2F3401112
:102EA00061F38203C2F3001161F3C303C2F3C001F3
:102EB00061F30413C2F3800161F34513C2F34001CF
:102EC00061F3861362F3C71302A98DF8193004F079
:102ED00042FE09B030BD0D20FBE730B5044687B097
:102EE0001122002101A840F0DAFB94F83833D3B165
:102EF00004F1A80501A9284604F03EFB88B928463C
:102F00000DF1030104F06BFA054650B99DF803304A
:102F100020688DF8143001A904F048FE172808BF76
:102F2000284607B030BD0D20FBE790F83E13806FB8
:102F3000FFF708BB37B502A90023044601F8013D9D
:102F4000A83004F05CFA054630B994F83E239DF8A9
:102F5000073022B984F83E33284603B030BD002B39
:102F6000FAD184F83E03206805F0A2FAF4E770B5C0
:102F700090F83E33ADF5047D0546002B44D000F1BA
:102F8000A80404A9204604F06CFA58B90DF1060211
:102F900002A9204604F02BFB20B9BDF80660FC2EE8
:102FA00003D907200DF5047D70BD029932460DF15D
:102FB000150040F050FB0DF1050120468DF814601E
:102FC00004F01DFA0028EDD19DF812319DF805207E
:102FD00002A962F3000320460DF106028DF81231BA
:102FE00004F005FB0028DDD1BDF80640F82CD8D848
:102FF0000299224645A840F02EFB03A928688DF8C7
:10300000134105F026FACDE70D20CBE730B590F857
:103010003E3385B00446CBB100F1A80502A928468D
:1030200004F01FFA80B90DF1060203A9284604F046
:10303000DEFA48B9BDF80630FF2B09D8DBB2DDE96E
:103040000212206805F01DFA05B030BD0D20FBE727
:103050000720F9E730B5ADF5037D00230546009361
:1030600000F1780401AA6946286805F00FFA68BBE8
:10307000204604F0CBFB30BB0299204604F026FB2F
:1030800008BB9DF80C200DF10D01204604F096FBC5
:10309000C8B99DF80A11A86F01F00101FFF752FAB3
:1030A00088B99DF80B2143A9204604F087FB50B94D
:1030B000BDF80412204604F0FAFA20B9204604F0C4
:1030C000C4FB0028CED00DF5037D30BD0020FAE70B
:1030D00030B5ADF5037D00230546009300F178047B
:1030E00001AA6946286805F0DAF998BB204604F081
:1030F0008DFB60BB9DF80410A86F04F0B6F830BBE0
:103100000299204604F0E2FA08BB9DF80C200DF16C
:103110000D01204604F052FBC8B99DF80A11A86FB2
:1031200001F00101FFF70EFA88B99DF80B2143A9C0
:10313000204604F043FB50B9BDF80412204604F0C9
:10314000B6FA20B9204604F080FB0028C8D00DF55F
:10315000037D30BD0020FAE790F8CE10806FFFF7B6
:10316000F1B900F1CE01A83004F049B990F8CF10C0
:10317000806FFFF7E7B900F1CF01A83004F03FB945
:10318000B0F8D010783004F092BA00F1D001A83035
:1031900004F053B97FB591F86430DB0705460C465F
:1031A00000F14F8194F864309E071DD505F1780633
:1031B000304604F02BFB002840F0498141F21D51BC
:1031C000304604F0D0FA002840F04181D4E90223CF
:1031D000304604F096FA002840F03981304604F079
:1031E00034FB002840F0338194F8643058071CD534
:1031F00005F17806304604F009FB002840F02781ED
:103200004621304604F0AFFA002840F02081102219
:10321000A118A86F04F03AF8002840F01881304651
:1032200004F013FB002840F0128194F86430190771
:103230001CD505F17806304604F0E8FA002840F085
:1032400006814421304604F08EFA002840F0FF80C9
:1032500004F12001304604F0C1FA002840F0F78064
:10326000304604F0F2FA002840F0F18094F864301F
:10327000DA061DD505F17806304604F0C7FA0028B5
:1032800040F0E5804521304604F06DFA002840F01A
:10329000DE80082204F13101A86F03F0F7FF002857
:1032A00040F0D580304604F0D0FA002840F0CF80BE
:1032B00094F864309B062BD522466B4652F8390FA2
:1032C000516805F1780603C300233046CDE9023387
:1032D00004F09CFA002840F0BA806221304604F0E5
:1032E00042FA002840F0B38069463046FFF73DF9C6
:1032F000002840F0AD804021A86F03F0B6FF002801
:1033000040F0A680304604F0A0FA002840F09F80EC
:1033100094F864305E0600F1B28094F86430DB0902
:103320001AD005F17806304604F070FA002840F013
:103330008E803621304604F016FA002840F087804F
:10334000B4F84810304604F0B2F900287FD1304676
:1033500004F07BFA00287AD194F86530D80718D5A4
:1033600005F17806304604F051FA00286FD121218A
:10337000304604F0F8F9002869D194F84A10A86F93
:1033800003F073FF002862D1304604F05EFA002893
:103390005DD194F86530990719D505F17806304666
:1033A00004F034FA002852D14B21304604F0DBF906
:1033B00000284CD1102204F14C01A86F03F066FFE5
:1033C000002844D1304604F040FA00283FD194F858
:1033D00065305A071BD505F17806304604F016FA19
:1033E000A8BB41F21F51304604F0BDF978BBB4F8D8
:1033F0005C10304604F05BF948BB94F85E10A86F8F
:1034000003F033FF18BB304604F01FFAF8B994F804
:1034100065301B071BD505F17806304604F0F6F938
:10342000A8B92221304604F09EF980B9216E2846C1
:10343000FDF7A8FE044650B9304604F006FA2046CF
:1034400006E000F17806304604F0E0F910B1002003
:1034500004B070BD41F21C51304604F084F90028DC
:10346000F5D1D4E90023304604F04BF90028EED121
:10347000304604F0EAF900283FF494AEE7E705F19E
:103480007806304604F0C2F90028E0D141F21E511E
:10349000304604F068F90028D9D1616C304604F058
:1034A00015F90028D3D1304604F0CFF900283FF4B5
:1034B00034AFCCE710B59AB004466946006804F012
:1034C00011FC69462046FFF765FE1AB010BD10B525
:1034D0009AB004466946006804F02DFC694620460F
:1034E000FFF758FE1AB010BD2DE9F04F0C4687B01B
:1034F000904605466822002120469946DDF840A006
:103500009DF8447040F0CBF8B8F1000F02D00023D2
:10351000C8F80030B9F1000F02D0002389F800305C
:10352000BAF1000F02D00023CAF8003005F1A80656
:103530004FF0010BB5F8AE20B5F8B0309A4200F06C
:10354000D181304604F068F8002840F0A78004A933
:10355000304603F0ECFF002840F0A080049B4B2B8A
:1035600000F0388137D8362B00F007810BD8212B9B
:1035700000F01781222B00F06D81304604F06CF8CA
:103580000028D7D08AE0452B00F0C380462B00F0FE
:103590009C80442BF1D12FB1B5F8AE20B5F8B030F6
:1035A0009A4213D005A9304603F0F9FF002875D1DF
:1035B00005990191084640F0BBFC102800F290816B
:1035C000421C019904F1200040F045F894F8643061
:1035D00043F0080359E041F21E52934200F0B980D3
:1035E0002BD841F21C52934244D05AD8622BC4D1FA
:1035F0002FB1B5F8AE20B5F8B0309A4218D005A971
:103600003046FEF7A8FF002848D10DF10E013046E4
:1036100003F0E5FE002841D19DF80E30402B40F02C
:103620005F81059A1368C4F839305368C4F83D3097
:1036300094F8643043F0200327E0B3F5A95F00F06D
:103640002D81C0F0EB8041F22752934295D12FB1EA
:10365000B5F8AE20B5F8B0309A428ED005A9304604
:10366000FEF779FFD0B9BAF1000F86D0059BCAF8F2
:10367000003082E767B1B5F8AE20B5F8B0309A42B5
:1036800006D194F8643043F0010384F8643074E7A1
:103690002146304603F0FDFE0028F2D007B0BDE819
:1036A000F08F57B1B5F8AE20B5F8B0309A4204D1DA
:1036B00094F8643043F00203E7E704F10801304670
:1036C00003F0E7FE0028F3D0E8E72FB1B5F8AE200D
:1036D000B5F8B0309A4217D00DF10E0205A9304668
:1036E00003F07AFF0028D9D1BDF80E30102B40F03E
:1036F000F780059B04F1100203F1100153F8040B4D
:1037000042F8040B8B42F9D194F8643043F004037F
:10371000BBE72FB1B5F8AE20B5F8B0309A4213D060
:103720000DF10E0205A9304603F056FF0028B5D171
:10373000BDF80E30082B40F0D380059A1368C4F80A
:1037400031305368C4F8353094F8643043F01003D6
:103750009BE757B1B5F8AE20B5F8B0309A4204D126
:1037600094F8643043F040038FE704F1440130469D
:1037700003F077FE0028F3D090E757B1B5F8AE20FC
:10378000B5F8B0309A4204D194F8643043F0800325
:103790007BE704F14801304603F04FFE0028F3D0E8
:1037A0007CE72FB1B5F8AE20B5F8B0309A420AD018
:1037B00005A9304603F013FE00287FF46FAF9DF893
:1037C0001430A4F84A3094F8653043F0010384F8CB
:1037D0006530D2E62FB1B5F8AE20B5F8B0309A42D8
:1037E00017D00DF10E0205A9304603F0F5FE0028B2
:1037F0007FF454AFBDF80E30102B71D1059B04F14E
:103800004C0203F1100153F8040B42F8040B8B42F5
:10381000F9D194F8653043F00203D8E757B1B5F811
:10382000AE20B5F8B0309A4204D194F8653043F038
:103830000403CCE704F15C01304603F0FEFD0028F0
:103840007FF42CAF04F15E01304603F0C8FD002880
:10385000EBD023E72FB1B5F8AE20B5F8B0309A42DF
:1038600017D000232366B5F8AE20B5F8B0309A42E1
:103870000FD005A9304603F0B2FD00287FF40EAF4B
:103880009DF814301F2B2BD8226E0BFA03F3134331
:10389000E8E794F8653043F0080398E737B1B5F8E6
:1038A000AE20B5F8B0309A423FF467AE0DF10E028B
:1038B00005A9304603F090FE00287FF4EFAEBDF876
:1038C0000E30FF2B0CD8B8F1000F02D0059AC8F8C3
:1038D0000020B9F1000F3FF450AE89F800304CE6FB
:1038E0000720DBE60020D9E610B500239CB0CDE927
:1038F00000331A4602A90446FFF7F6FD18B902A9DB
:10390000206804F010FA1CB010BD10B500239CB064
:10391000CDE900331A4602A90446FFF7E5FD18B9C0
:1039200002A9206804F00FFA1CB010BD10B50023E6
:103930009EB0CDE9003303AA0DF10B0304A90446A0
:10394000FFF7D2FD30B99DF80B30039A206804A927
:1039500004F006FA1EB010BD10B500239EB0CDE9EC
:10396000003303AA0DF10B0304A90446FFF7BCFDC5
:1039700030B99DF80B30039A206804A904F0FAF9D5
:103980001EB010BD10B5A0B00123019305AB00938C
:1039900004AA0DF10F0306A90446FFF7A5FD40B9DF
:1039A000059A00929DF80F30049A20681FA904F030
:1039B000D2F920B010BD10B5A0B00123019305AB22
:1039C000009304AA0DF10F0306A90446FFF78CFD2E
:1039D00040B9059A00929DF80F30049A20681FA9FB
:1039E00004F0C3F920B010BD10B50446006804F01F
:1039F00071FA0138C0B2042896BF044B0021195C4B
:103A0000A06FBDE8104003F030BC00BF7C4F040045
:103A100030B500F1A8058FB0002304460DF11F0159
:103A200028468DF81F30CDE90833CDE90A33CDE9BA
:103A30000C3303F0E4FC28B99DF81F3023B920684B
:103A400004F040FA0FB030BD08A9284603F0A7FDE6
:103A50000028F7D1B4F8AE20B4F8B0309A4234D18F
:103A6000B4F8AE20B4F8B0309A4205D00AA928467E
:103A700003F095FD0028E5D1B4F8AE20B4F8B030DD
:103A80009A4205D00BA9284603F089FD0028D9D118
:103A9000B4F8AE20B4F8B0309A4205D00CA928464C
:103AA00003F07DFD0028CDD1B4F8AE20B4F8B030DD
:103AB0009A4205D00DA9284603F071FD0028C1D116
:103AC0000A9B4BB9144B0A9309E009A9284603F055
:103AD00066FD0028C4D0B5E71B78002BF2D00B9B05
:103AE0000BB11B780BB90D4B0B930C9B0BB11B78D7
:103AF0000BB90B4B0C930B4B03930D9B02930C9B3D
:103B000001930B9B00930494DDE909230899206835
:103B100004F0D3F996E700BF874F0400924F0400EA
:103B20009B4F04005B4F00001FB50446006804F083
:103B300071FD034680B1596800686A4603C20023DC
:103B4000694604F17800CDE90233FEF70EFD18B99D
:103B50004021A06F03F089FB04B010BD37B500F120
:103B6000A805044601A92846FEF7F5FC68B90DF141
:103B70000301284603F033FC38B99DF80330402B8D
:103B800005D10199206804F049FD03B030BD07203C
:103B9000FBE710B50446006804F038FD20B101468B
:103BA00004F17800FEF7E1FC10BD10B50446006892
:103BB00004F04CFD20B1014604F17800FEF7D5FC7D
:103BC00010BD70B50546064655F8780B04F012F99D
:103BD00004460CB3284603F019FEF0B921462846E6
:103BE000FEF7C3FCC8B9217CB06F03F03EFBA0B95F
:103BF000617C284641F3000103F068FD68B9617CEF
:103C0000284641F3400103F061FD30B9284603F036
:103C10001CFE10B96469DCE7204670BD30B500F1C8
:103C2000A80489B0054602A9204603F0A5FC10BBF4
:103C300006A9204603F0D3FBE8B96946204603F005
:103C400010FCC0B901A9204603F00BFC98B9009BF9
:103C500028681A1C9DF8193018BF012262F300036E
:103C6000019A003218BF012262F3410302A98DF8C4
:103C7000193004F0C3F809B030BD37B5044601A9C6
:103C8000A830FEF768FC054630B90199206804F0B9
:103C9000BAF8172808BF284603B030BD0221783093
:103CA00003F037BE10B50446006804F06DF8011C3F
:103CB00018BF0121A06FBDE81040FEF743BC37B527
:103CC00002A90023054601F8013DA83003F097FB47
:103CD000044640B99DF807302868002B14BF032123
:103CE000002104F055F8204603B030BD38B5054634
:103CF00055F8780B04F08CF8044674B1284603F0AC
:103D000085FD58B921462846FEF72FFC30B92846D4
:103D100003F09BFD10B92469EFE7204638BD37B5A5
:103D2000044601A9A830FEF716FC054630B90199F2
:103D3000206804F071F8182808BF284603B030BD89
:103D400037B5044601A9A830FEF705FC054630B991
:103D50000199206804F065F8172808BF284603B0C9
:103D600030BD000010B50446006804F00DF80138BD
:103D7000C0B2022896BF044B0021195CA06FBDE8B9
:103D8000104003F072BA00BF814F040037B50546FA
:103D90000DF10701A83003F022FB044658B99DF845
:103DA0000730013BDBB2022B96BF044A0146D15CCF
:103DB000286803F0EDFF204603B030BD844F0400B7
:103DC00010B50446006804F036F880F00101C9B26D
:103DD000A06FBDE81040FEF7B5BB37B502A90023C0
:103DE000054601F8013DA83003F009FB044630B94F
:103DF0009DF80710286881F0010104F020F82046A2
:103E000003B030BD70B588B00023504E0193044616
:103E100002AA01A9206804F005FB002841D104F1A1
:103E20007805284603F0F2FC002838D102A928467C
:103E3000FEF79BFB98BB9DF81810A06F03F015FAD6
:103E400068BB9DF81C10A06FC1F38001FEF77AFBE0
:103E500028BB9DF81C3043F301035BB20133022BF6
:103E60008CBF0146F15CA06F03F0FFF9B8B90146C1
:103E7000A06F03F0FAF990B99DF81C10A06FC1F380
:103E8000C001FEF75FFB50B9BDF81A10284603F0D9
:103E90000EFC20B9284603F0D8FC0028B8D008B0A2
:103EA00070BD0023294E019304F1780502AA01A9EF
:103EB000206803F0A0FE002845D1284603F0A6FCA8
:103EC0000028ECD102A92846FEF74FFB0028E6D1D6
:103ED0009DF81810A06F03F0C8F90028DFD19DF8F5
:103EE0001C10A06FC1F38001FEF72CFB0028D6D177
:103EF0009DF81C3043F301035BB20133022B8CBFEE
:103F00000146F15CA06F03F0B0F90028C7D1012190
:103F1000A06F03F0AAF90028C1D19DF81C10A06F72
:103F2000C1F3C001FEF70EFB0028B8D1BDF81A108E
:103F3000284603F0BCFB0028B1D1284603F085FCDD
:103F40000028B3D0ABE70020A9E700BF764F0400FC
:103F500030B5054689B00021182202A88DF8051059
:103F60008DF806103FF09BFB95F83833002B3DD0C1
:103F700005F1A80402A9204603F0FEFA90BB0DF15A
:103F80000701204603F02BFA60BB0DF10501204626
:103F900003F035FA30BB0DF10601204603F01FFA9D
:103FA00000BB9DF807308DF818309DF805209DF86E
:103FB0001C3062F382038DF81C309DF8063003F04C
:103FC000C003402B10D0C02B0CBF4FF0FF3200229B
:103FD0009DF81C30286862F3010302A98DF81C309B
:103FE00003F0F3FD09B030BD0122F1E70D20F9E740
:103FF00030B5044687B01122002101A83FF04FFBE5
:1040000094F83833D3B104F1A80501A9284603F088
:10401000B3FA88B928460DF1030103F0E0F905462B
:1040200050B99DF8033020688DF8143001A903F0D1
:10403000DCFD172808BF284607B030BD0D20FBE780
:1040400030B500F1A80585B00023044601AA02A9F5
:1040500028460293ADF804300393ADF8063003F020
:10406000C6FAD8B90DF1060203A9284603F0B4FA3E
:10407000A0B903460299BDF80420206803F0F8FEB9
:10408000014650B1206803F0DEFE38B9D4F8483359
:104090000133C4F8483305B030BD0320D4F85C3395
:1040A0000133C4F85C33F6E710B5044654F8780BD6
:1040B00004F03BF801462046BDE8104003F0F7BA93
:1040C00010B5044654F8780B03F0F8FF0168204659
:1040D000BDE8104003F0FABA10B5044654F8780B66
:1040E00003F0ECFFC1682046BDE8104003F0EEBAD3
:1040F00010B5044654F8780B03F0E0FF0169204640
:10410000BDE8104003F0E2BA10B5044654F8780B4D
:1041100003F0D4FF41692046BDE8104003F0D6BA51
:1041200010B5044654F8780B03F0C8FF81692046A7
:10413000BDE8104003F0CABA10B5044654F8780B35
:1041400003F0BCFFC1692046BDE8104003F0BEBAD1
:1041500010B5044654F8780B03F0B0FF016A20460E
:10416000BDE8104003F0B2BA10B5044654F8780B1D
:1041700003F0A4FF416A2046BDE8104003F0A6BA50
:1041800010B5044654F8780B03F098FF816A204676
:10419000BDE8104003F09ABA10B5044654F8780B05
:1041A00003F08CFFC16A2046BDE8104003F08EBAD0
:1041B00010B5044654F8780B03F080FF016B2046DD
:1041C000BDE8104003F082BA10B5044654F8780BED
:1041D00003F074FF41682046BDE8104003F076BA52
:1041E00010B5044654F8780B03F068FF8168204648
:1041F000BDE8104003F06ABA10B5044654F8780BD5
:1042000003F05CFF416B2046BDE8104003F05EBA4E
:1042100010B5044654F8780B03F050FFC16B2046EC
:10422000BDE8104003F052BA10B5044654F8780BBC
:1042300003F044FF816C2046BDE8104003F046BA0D
:1042400010B5044654F8780B03F038FFC16C2046D3
:10425000BDE8104003F03ABA10B5044654F8780BA4
:1042600003F02CFF016D2046BDE8104003F02EBA8C
:1042700010B5044654F8780B03F020FF416D20463A
:10428000BDE8104003F022BA10B5044654F8780B8C
:1042900003F014FF816D2046BDE8104003F016BA0C
:1042A00010B5044654F8780B03F008FFC16D2046A2
:1042B000BDE8104003F00ABA10B5044654F8780B74
:1042C00003F0FCFE016E2046BDE8104003F0FEB98D
:1042D00010B5044654F8780B03F0F0FE416E20460A
:1042E000BDE8104003F0F2B910B5044654F8780B5D
:1042F00003F0E4FE016C2046BDE8104003F0E6B98F
:1043000010B5044654F8780B03F0D8FE416C2046F3
:10431000BDE8104003F0DAB910B5044654F8780B44
:1043200003F0CCFE816E2046BDE8104003F0CEB90C
:1043300010B5044654F8780B03F0C0FEC16E204659
:10434000BDE8104003F0C2B910B5044654F8780B2C
:1043500003F0B4FE016F2046BDE8104003F0B6B98B
:1043600010B5044654F8780B03F0A8FE416F2046C0
:10437000BDE8104003F0AAB910B5044654F8780B14
:1043800003F09CFE816F2046BDE8104003F09EB90B
:1043900010B5044654F8780B03F090FEC16F204628
:1043A000BDE8104003F092B9D0F84813783003F01C
:1043B0008DB9D0F84C13783003F088B9D0F85C137D
:1043C000783003F083B9D0F85013783003F07EB919
:1043D000D0F85413783003F079B9D0F85813783006
:1043E00003F074B9D0F86C13783003F06FB9D0F8DB
:1043F0006413783003F06AB9D0F86013783003F0B2
:1044000065B910B5044654F8780B04F02BFA01682E
:104410002046BDE8104003F059B910B5044654F8E1
:10442000780B04F01FFA41682046BDE8104003F005
:104430004DB910B5044654F8780B04F013FA8168AE
:104440002046BDE8104003F041B910B5044654F8C9
:10445000780B04F007FAC1682046BDE8104003F06D
:1044600035B910B504468AB054F8780B694603F0A4
:1044700032FFBDF80010204603F019F900285CD186
:10448000BDF80210204603F012F9002855D1BDF8FE
:104490000410204603F00BF900284ED1BDF8061099
:1044A000204603F004F9002847D1BDF80810204643
:1044B00003F0FDF8002840D1BDF80A10204603F0B3
:1044C000F6F8D0BBBDF80C10204603F0F0F8A0BB06
:1044D000BDF80E10204603F0EAF870BBBDF81010CE
:1044E000204603F0E4F840BBBDF81210204603F06C
:1044F000DEF810BBBDF81410204603F0D8F8E0B980
:10450000BDF81610204603F0D2F8B0B9BDF8181067
:10451000204603F0CCF880B9BDF81A10204603F00D
:10452000C6F850B9BDF81C10204603F0C0F820B9F9
:10453000BDF81E10204603F0BAF800200AB010BDE6
:1045400038B5044654F8780B03F0B8FD054628B991
:1045500020461521BDE8384003F0DBB9204603F0C2
:1045600055F9002840F0D0802968204603F0AEF8C5
:10457000002840F0C9806968204603F0A7F80028A9
:1045800040F0C280A968204603F0A0F8002840F05F
:10459000BB80E968204603F099F8002840F0B48019
:1045A0002969204603F092F8002840F0AD8069693F
:1045B000204603F08BF8002840F0A680A969204629
:1045C00003F084F8002840F09F80E969204603F05A
:1045D0007DF8002840F09880296A204603F076F89C
:1045E000002840F09180696A204603F06FF80028A7
:1045F00040F08A80A96A204603F068F8002840F05D
:104600008380E96A204603F061F800287CD1296B99
:10461000204603F05BF8002876D1696B204603F052
:1046200055F8002870D1A96B204603F04FF80028F8
:104630006AD1204603F009F9002865D1204603F02D
:10464000E5F8002860D1E96B204603F03FF8002828
:104650005AD1296C204603F039F8002854D1696CEE
:10466000204603F033F800284ED1A96C204603F011
:104670002DF8002848D1E96C204603F027F80028DF
:1046800042D1296D204603F021F800283CD1696D04
:10469000204603F01BF8002836D1A96D204603F010
:1046A00015F888BBE96D204603F010F860BB296E51
:1046B000204603F00BF838BB696E204603F006F87D
:1046C00010BBA96E204603F001F8E8B9E96E204658
:1046D00002F0FCFFC0B9296F204602F0F7FF98B93D
:1046E000696F204602F0F2FF70B9A96F204602F010
:1046F000EDFF48B9E96F204602F0E8FF20B92046F7
:10470000BDE8384003F0A1B838BD38B5044654F8C8
:10471000780B04F0ABF8054628B920461521BDE812
:10472000384003F0F6B80188204602F0C0FF40BBD5
:104730006988204602F0BBFF18BBA988204602F01A
:10474000B6FFF0B9E988204602F0B1FFC8B929895F
:10475000204602F0ACFFA0B96989204602F0A7FF0D
:1047600078B9A989204602F0A2FF50B9E98920460C
:1047700002F09DFF28B9298A2046BDE8384002F0A2
:1047800096BF38BD30B585B0002305468DF803309F
:1047900000F1780401AA0DF10301286803F05AFC26
:1047A000A8B9204603F032F878B901A92046FDF7F0
:1047B00043F950B99DF90C102046FDF7D2FE20B9FF
:1047C000204603F042F80028E4D005B030BD0020B8
:1047D000FBE710B50446006803F01EFC431E594277
:1047E000A06F5941BDE81040FDF7ACBE30B585B0B3
:1047F000002305468DF8033000F1780401AA0DF17D
:104800000301286803F026FC78B9204602F0FEFF79
:1048100048B901A92046FDF70FF920B9204603F059
:1048200014F80028EAD005B030BD0020FBE710B531
:104830000446006803F0F0FB831E5942A06F594103
:10484000BDE81040FDF77EBE30B585B000230546BB
:104850008DF8033000F1780401AA0DF103012868F6
:1048600003F010FCA8B9204602F0D0FF78B901A9E6
:104870002046FDF7E1F850B99DF90C102046FDF7F0
:1048800070FE20B9204602F0E0FF0028E4D005B019
:1048900030BD0020FBE7F7B50646054656F8A80BE5
:1048A00003F0D3FB0027B5F8AE20B5F8B0309A423C
:1048B00040D03046019702F0AFFE044690B901A9FE
:1048C0003046FDF74BFE044660B9B5F8AE20B5F8AA
:1048D000B0309A4210D00DF10301304602F0A1FD34
:1048E000044660B101234FF4985280212846FCF71A
:1048F00085F9204603B0F0BD7F238DF803303046A4
:1049000002F0AAFE04460028ECD10199286803F0C1
:104910008CFB1828044601D00028E3D19DF9032020
:104920007F2AC0D00199286803F09DFB0446002827
:10493000B9D0D7E70024DCE713B504460DF1070131
:10494000A83002F05CFD20B99DF80710206803F044
:1049500067FB02B010BDF7B50646054656F8A80B32
:1049600003F073FB0027B5F8AE20B5F8B0309A42DB
:1049700023D03046019702F04FFE044698B901A9B2
:104980003046FDF7EBFD044668B9304602F064FEA0
:10499000044640B90199286803F04FFB18280446E3
:1049A000E1D00028DFD0012341F2063280212846E1
:1049B000FCF724F9204603B0F0BD0024FAE713B554
:1049C00004460DF10701A83002F019FD40B99DF829
:1049D00007302068002B14BF0221002103F020FBC8
:1049E00002B010BD73B50646054656F8A80B03F095
:1049F00044FBB5F8AE20B5F8B0309A4235D0304619
:104A000002F00AFE044668B9B5F8B030B5F8AE2039
:104A10009B1A9BB2082B0FD901A93046FDF79EFDCA
:104A2000044650B1012341F2083280212846FCF7A8
:104A3000E5F8204602B070BD01900DF1030130464B
:104A400002F0EFFC04460028ECD1304602F004FEF0
:104A500004460028E6D19DF903200199286803F057
:104A600002FB04460028C4D0DCE70024E1E710B5CF
:104A70000446006803F06AFDC0F34001C0F3C003C0
:104A8000C0F3800200F00100FDF773FD0146A06F46
:104A9000BDE8104002F0E9BB37B502A90024054685
:104AA00001F8014DA83002F09AFCB0B99DF807302A
:104AB0002868C3F3C0024FF0000162F30001C3F3A2
:104AC000800262F34101C3F3400262F3820163F3A7
:104AD000C30103F063FD03B030BD2046FBE710B512
:104AE000044654F8780B03F0F3FC01462046BDE879
:104AF000104002F0EBBD37B502A90023054641F88E
:104B0000043DA83002F0ADFC044618B901992868AC
:104B100003F0E2FC204603B030BD10B5044654F863
:104B2000780B03F0F2FD01462046BDE8104002F08C
:104B3000BEBD90F83913806FFDF704BD00F2393126
:104B4000A83002F05CBC7FB500F1A8060023044643
:104B5000012501AA02A930460293ADF8043003935F
:104B6000ADF806308DF800308DF8015002F03FFDB1
:104B700038B1D4F84C330133C4F84C33002004B0BE
:104B800070BD0DF1060203A9304602F025FD002894
:104B9000EFD16B46BDF804200299206803F068F954
:104BA000064670B1294603F066FB3146206803F0E3
:104BB0004AF90028DDD0D4F85C330133C4F85C3303
:104BC000DDE70320F7E707B502A9002301F8013D5F
:104BD000A83002F004FC28B99DF80730012B14BF5F
:104BE00007200C2003B05DF804FB13B504460DF15B
:104BF0000601A83002F021FC20B9BDF8061020689B
:104C000003F03BF902B010BD73B5002300F1A80614
:104C1000019305467F2301A930468DF80330FDF747
:104C20009DFC0446E0B9B5F8AC20B5F8AE309A4228
:104C30000ED10199286803F0F8F9182813D19DF9CD
:104C400003207F2A0CD00199286803F00CFA06E0B3
:104C50000DF10301304602F0E4FB0028E9D00446E0
:104C6000204602B070BD0028E9D0F8E737B502A9A8
:104C70000023044641F8043DA830FDF76FFC0546CB
:104C800030B90199206803F0D0F9182808BF2846E8
:104C900003B030BD37B5002301937F238DF8033077
:104CA000B0F8AE20B0F8AC309B1A9BB2012B044692
:104CB00000F1A8050CD80DF10301284602F0B1FB64
:104CC00060B99DF903200199206803F0CCF906E052
:104CD00001A92846FDF742FC0028ECD0002003B0D3
:104CE00030BD37B504460DF10601A83002F0A5FB32
:104CF000054638B9BDF80610206803F0C3F8172838
:104D000008BF284603B030BD37B502A900230446CA
:104D100041F8043DA830FDF721FC054630B9019962
:104D2000206803F08AF9172808BF284603B030BD71
:104D3000FFF7EABF13B500230193B0F8AC20B0F839
:104D4000AE309A42044608D10199206803F090F9E8
:104D5000172808BF002002B010BD01A9A830FDF738
:104D6000FDFB0028F0D0F6E710B50446006803F01C
:104D700098F80146A06FBDE81040FDF7E3BB37B5DA
:104D800005460DF10701A83002F039FB044620B9B1
:104D90009DF80710286803F088F8204603B030BD5E
:104DA000F8B506460D46002978D091F83930C3F39E
:104DB00003079A064FEA071700F1780448BF47F047
:104DC00001070722DB064FF080014FF03303204636
:104DD00048BF47F0080702F07EFD002858D195F83B
:104DE0003610B06F02F041FA002851D195F9371012
:104DF0002046FDF7B6FB00284AD1204602F006FD0A
:104E0000002845D129462046FCF716FE00283FD150
:104E10004FF6FF71204602F04AFCC8BB698E20465F
:104E200002F045FCA0BB95F83810B06F02F01DFAF7
:104E300070BB204602F009FD50BB204602F0E6FCA4
:104E400030BB0321204602F08EFC08BB3946B06F10
:104E500002F00BFAE0B905F10801204602F0BEFCB1
:104E6000B0B9082205F11901204602F0A7FC78B973
:104E700095F8212005F12201204602F09FFC38B967
:104E8000204602F0E2FC18B9204602F007FD78B196
:104E90000B2106F1E000FDF75AFB03E03021E03082
:104EA000FDF752FB06F1D400BDE8F84004F08ABFDC
:104EB000F8BD0B4601461846FFF772BF70B50446B1
:104EC0000E46E9B100F178053923072280212846F2
:104ED00002F001FD70B93178A06F02F0C6F948B94F
:104EE00096F901102846FDF73CFB18B9284602F058
:104EF000D5FC78B10B2104F1E000FDF728FB03E0BD
:104F00003021E030FDF720FB04F1D400BDE8704013
:104F100004F058BF70BD0B4601461846FFF7CEBFE0
:104F2000082910B5044600F1E00012D002D839B1CA
:104F3000682106E017290ED01C29F9D16C2100E068
:104F40006D21FDF704FB04F1D400BDE8104004F02E
:104F500039BF6921F5E76A21F3E70B460146184698
:104F6000FFF7DEBFF8B5044608460E4603F07FF9AA
:104F700004F178050746002814BF72237323062224
:104F80008021284602F0A7FCB0B9304603F06DF945
:104F90000146284602F08BFB70B93146A06F02F043
:104FA00037F948B9284602F079FC28B92FB1D4F86E
:104FB00050330133C4F85033F8BDD4F854330133BF
:104FC000C4F85433F8E7F8B5044600F5517738468D
:104FD00003F071F90546D0B1D4F8883301330146A6
:104FE000C4F88833384603F064F929462046FFF7B1
:104FF000B9FF06460028EAD0D4F88C330133C4F850
:105000008C332946384603F051F93046F8BD064640
:10501000FBE710B5044679B100F5517003F043F990
:1050200050B994F8FA2294F8FB329A4204D12046FF
:10503000BDE81040FFF7C7BF10BD0B46014618463C
:10504000FFF7E7BFF0B587B000230493ADF80A304F
:105050008DF808300746012302A900688DF8093051
:1050600002F0F9FE054688B307F1A8060DF10A0221
:1050700004A9304602F0BBFA044648BB03A93046F7
:1050800002F0DBF9044618BB05A93046FDF763FAC8
:105090000446E8B90DF10E01304602F0CEF904469F
:1050A000B0B9BDF80A200499284603F0EFF8044689
:1050B00070B9BDF80E300093BDF80C20059B386820
:1050C000294603F096FC204607B0F0BD0324FAE71A
:1050D000284603F0C8F8F6E72DE9F04706460846EB
:1050E0000D4691469846BDF8207003F0BEF806F1D3
:1050F0007804824641F2245306228021204602F0A1
:10510000EAFB10B12DBBBDE8F0875146204602F006
:10511000CEFA0028F6D12946B06F02F079F80028BF
:10512000F0D14946204602F0C2FA0028EAD14146B1
:105130002046FDF71AFA0028E4D13946204602F04D
:10514000B6FA0028DED1204602F0A8FB0028D9D10B
:10515000D9E72846BDE8F04703F085B810B4019CB4
:10516000019313460A46014620465DF8044BFFF7BB
:10517000B3BFF8B590F83B3306460D461746CBB3A0
:1051800000F17804712306228021204602F0A3FB5F
:1051900080BB2979204602F08AFA58BB2A7929680F
:1051A000B06F02F073F828BB95F912102046FDF796
:1051B000D8F9F8B96FF07F012046FDF7D2F9C8B9E8
:1051C0003946204602F073FAA0B9204602F01EFBD1
:1051D00080B9204602F039FB60B9204602F016FB88
:1051E00040B9204602F031FB20B92046BDE8F84026
:1051F00002F054BBF8BD13460A4601461846FFF7B5
:10520000B8BF90F83B13806FFDF79CB937B50446E3
:105210000DF10701A83002F0F2F8054668B99DF8D3
:10522000073094F83B239A4207D084F83B33206838
:1052300033B10549224602F02EFF284603B030BDA7
:105240002A462946F7E700BFF7510000D1F8DC30C5
:105250001843C1F8DC0001F1D40004F0B3BD000034
:105260002DE9F041D0F8DC300446002B5BD05B0721
:105270002CD590F839334BB3006803F02BFA012892
:1052800007D9002384F83933492104F1E000FDF700
:105290005BF9206803F01EFA042817D1206803F098
:1052A000C6FA98B1D4F8DC30254623F08003C4F860
:1052B000DC3055F8E00B002103F089FA4221284642
:1052C000FDF742F968212846FDF741F9DFF86C80C7
:1052D000002504F1E00755F80860D4F8DC301E42E0
:1052E00006D10835A02DF6D10023C4F8DC301AE031
:1052F00008EB05035968522917D03846FDF724F901
:10530000B6F5007F07D15A213846FDF71DF95B211C
:105310003846FDF719F9D4F8DC3023EA0603C4F85F
:10532000DC30002BDDD1BDE8F08194F83D33002264
:1053300084F83D23002BE0D1E2E700BFBC4F04001E
:10534000F8B500F1780406460D4617468021712312
:105350000622204602F0BFFA0146002850D1002F55
:105360004AD12A792968204602F028FA002847D134
:10537000A97CB06F01F079FF002841D18021B06F86
:1053800001F073FF00283BD12B7D13F0010F14BFF8
:1053900010210021204602F08AF988BB204602F045
:1053A00035FA68BB6979B06F01F05FFF40BBE97CFB
:1053B000B06F01F05AFF18BBE968204602F086F989
:1053C000F0B9298A204602F072F9C8B9204602F0E5
:1053D0003CFAA8B9204602F019FA88B939462046A5
:1053E00002F0C1F960B9204602F02FFA40B9204618
:1053F000BDE8F84002F052BA204602F058F9B5E78D
:10540000F8BD0000014B1868FFF79ABFD80B0020C9
:105410002DE9F04190F840130646154698460029BC
:1054200071D041F080011AB313681F78C7F30017D9
:10543000002306F1780486F840330622204602F065
:105440004AFA00285FD14046FBF78CF90146204616
:1054500002F089F9002856D13946B06F01F005FFF6
:10546000002850D135B92046BDE8F04102F016BA07
:105470001746DDE7B8F1000FF5D12979204602F093
:1054800016F900283FD12A792968B06F01F0FEFE95
:10549000002838D1A97CB06F01F0E7FE98BB8021CD
:1054A000B06F01F0E2FE70BB4146204602F0FFF80B
:1054B00048BB204602F0AAF928BB6979B06F01F019
:1054C000D4FE00BBE97CB06F01F0CFFED8B9E9682B
:1054D000204602F0FBF8B0B9298A204602F0E7F82E
:1054E00088B9204602F0B1F968B9204602F08EF979
:1054F000014640B9204602F036F920B9204602F0B4
:10550000A4F90028AFD0BDE8F08100000148006890
:10551000FFF77EBFD80B0020F8B5FF23044690F9B3
:10552000417380F84133054654F8780B0E4615490F
:1055300002F015FE392306228021204602F0CBF925
:10554000F0B9F9B2A86F01F090FEC8B9F1B2A86F36
:1055500001F08BFEA0B9204602F0A0F980B98021AD
:1055600030230622204602F0B6F9014640B9A86F62
:1055700001F07BFE20B92046BDE8F84002F08EB96C
:10558000F8BD00BF05540000014B1868FFF7C4BF09
:10559000D80B002010B5044654F8780B02F0EEFD4D
:1055A00001462046BDE8104002F0DDB890F84213F5
:1055B000806F01F05ABE10B500F242310446A830A7
:1055C00001F01DFF30B994F842132068BDE8104087
:1055D00002F0DEBD10BD73B50446006802F01DFE8A
:1055E0000546B8B904F1A806B4F8B030B4F8AE2056
:1055F0009B1A9BB2012B0DD90DF10601304601F02B
:105600001CFF30B9BDF80610206802F0CCFD002860
:10561000EAD00546284602B070BD73B5044600685E
:1056200002F006FE0546B0B904F1A806B4F8B030A1
:10563000B4F8AE209B1A9BB2072B0CD9082201A903
:10564000304601F08BFF28B90199206802F0B3FDC4
:105650000028EBD00546284602B070BD13B50446BD
:105660000DF10601A83001F0E8FE20B9BDF80610E2
:10567000206802F0B5FD02B010BD13B50822044643
:1056800001A9A83001F06AFF18B90199206802F059
:10569000AFFD02B010BD13B504460DF10601A830F0
:1056A00001F0CBFE20B9BDF80610206802F07BFDAA
:1056B00002B010BD13B502A90023044641F8043D11
:1056C0000822A83001F04AFF18B90199206802F0B9
:1056D00072FD02B010BD000013B502A900230446FC
:1056E00001F8013DA83001F08AFE60B99DF807304D
:1056F000206853B994F83A330BB102F028FD002129
:10570000206802F016FD02B010BD012102F011FD6B
:105710000028F8D194F83A33002BF4D002492068DD
:1057200002F01DFDEFE700BF0554000013B504466D
:105730000DF10601A83001F080FE20B9BDF8061079
:10574000206802F0FFFC02B010BD73B500F1A8069E
:105750000C460DF1020201A9304601F048FF054652
:1057600078BBBDF802207F2A2ED82546227155F835
:10577000050B01993DF06FFF2946304601F02FFEE1
:105780000546F0B94FF44873A381A37B43F00203AD
:10579000A37304F10C01304601F021FE88B904F135
:1057A0000D01304601F01BFE58B90DF101013046E4
:1057B00001F025FE28B9A37B9DF8012062F3410387
:1057C000A373284602B070BD0625FAE738B5044633
:1057D00000680D4602F0B2FCE8B1206802F0C4FC9B
:1057E0000146D0B12046FFF7B0FF034648B905F0A7
:1057F0000F0384F840330A49206802F0BAFC0346DC
:1058000068B11846FAF7AEFF294602462046BDE8C1
:105810003840FBF7D9B90D23F3E70323F1E738BD8F
:105820000D550000B2F5A16F00F0FC8400F26E810E
:10583000492A00F06A8400F2B380282A00F02E84FE
:1058400056D8092A00F0DB8324D8042A00F01C84EF
:1058500010D8012A4FF0000300F0EE83C0F0CB8394
:10586000022A00F00884032A00F0C1830023C0E963
:1058700000337047062A4FF0000300F0B483C0F0F5
:105880007783072A00F0CF83082AEFD1C84AC0E9FE
:1058900000237047222A00F0FC8314D80D2A00F060
:1058A000C68306D80C2AE1D1C24B036000234360B3
:1058B0007047202A00F0A883212AD7D1BE4B03606D
:1058C000002343607047252A00F0A88306D8232AC6
:1058D000CCD1BA4B0360002343607047262A00F006
:1058E0009883272AC2D1B64B0360002343607047D8
:1058F0003A2A00F0D88328D8342A00F0A58314D897
:10590000302A00F0AE8306D8292AAFD1AD4B036010
:10591000002343607047312A00F0A883322AA5D1C2
:10592000A94B0360002343607047362A4FF0000301
:1059300000F08683C0F08D83372A00F08E83382AEA
:1059400094D1A24AC0E900237047442A00F0D883CA
:1059500015D8412A00F0C38306D8402A86D19C4B33
:105960000360002343607047422A00F0D383432A38
:105970007FF47CAF974B0360002343607047462A57
:105980004FF0000300F0B883C0F0C983472A00F04D
:10599000AB83482A7FF46AAF8F4AC0E9002370477F
:1059A000622A00F021844FD8572A00F0E48325D8DA
:1059B000522A00F05C8510D84B2A4FF0000300F00B
:1059C0004E85C0F09583502A00F0C583512A7FF49C
:1059D0004DAF824AC0E900237047542A4FF00003BC
:1059E00000F04185C0F0BB83552A00F04E85562A51
:1059F0007FF43CAF7A4AC0E9002370475C2A00F08C
:105A0000968310D8592A4FF0000300F0CC83C0F0E1
:105A1000CE835A2A00F0B4835B2A7FF427AF714A01
:105A2000C0E9002370475E2A4FF0000300F09B831B
:105A3000C0F07983602A00F0D383612A7FF416AF27
:105A4000694AC0E900237047A02A00F0FB842BD8E4
:105A5000672A00F0C08310D8642A4FF0000300F0DA
:105A6000C883C0F0B083652A00F0B183662A7FF452
:105A7000FDAE5E4AC0E900237047822A00F02A8505
:105A800007D8802A7FF4F2AE594B036000234360AD
:105A90007047842A00F02385852A7FF4E7AE554BB2
:105AA000036000234360704740F203539A4200F0C2
:105AB000A88314D8A22A4FF0000300F0CC84C0F0D1
:105AC000C68440F201518A4200F0978340F20251AD
:105AD0008A427FF4CBAE484AC0E90023704740F2C7
